{
	"contracts/confirming.sol": {
		"newProgram": {
			"abi": [
				{
					"inputs": [],
					"name": "add",
					"outputs": [
						{
							"internalType": "uint256",
							"name": "",
							"type": "uint256"
						}
					],
					"stateMutability": "pure",
					"type": "function"
				},
				{
					"inputs": [
						{
							"internalType": "string",
							"name": "_name",
							"type": "string"
						},
						{
							"internalType": "uint256",
							"name": "_admissionNumber",
							"type": "uint256"
						},
						{
							"internalType": "uint256",
							"name": "_marks",
							"type": "uint256"
						}
					],
					"name": "addStudent",
					"outputs": [],
					"stateMutability": "nonpayable",
					"type": "function"
				},
				{
					"inputs": [
						{
							"internalType": "uint256",
							"name": "",
							"type": "uint256"
						}
					],
					"name": "class",
					"outputs": [
						{
							"internalType": "string",
							"name": "name",
							"type": "string"
						},
						{
							"internalType": "uint256",
							"name": "admissionNumber",
							"type": "uint256"
						},
						{
							"internalType": "uint256",
							"name": "marks",
							"type": "uint256"
						}
					],
					"stateMutability": "view",
					"type": "function"
				},
				{
					"inputs": [],
					"name": "richard",
					"outputs": [
						{
							"internalType": "string",
							"name": "name",
							"type": "string"
						},
						{
							"internalType": "uint256",
							"name": "admissionNumber",
							"type": "uint256"
						},
						{
							"internalType": "uint256",
							"name": "marks",
							"type": "uint256"
						}
					],
					"stateMutability": "view",
					"type": "function"
				},
				{
					"inputs": [],
					"name": "showA",
					"outputs": [
						{
							"internalType": "uint256",
							"name": "",
							"type": "uint256"
						}
					],
					"stateMutability": "view",
					"type": "function"
				},
				{
					"inputs": [
						{
							"internalType": "uint256",
							"name": "y",
							"type": "uint256"
						}
					],
					"name": "store",
					"outputs": [],
					"stateMutability": "nonpayable",
					"type": "function"
				},
				{
					"inputs": [],
					"name": "x",
					"outputs": [
						{
							"internalType": "uint256",
							"name": "",
							"type": "uint256"
						}
					],
					"stateMutability": "view",
					"type": "function"
				}
			],
			"devdoc": {
				"kind": "dev",
				"methods": {},
				"version": 1
			},
			"evm": {
				"assembly": "    /* \"contracts/confirming.sol\":343:2867  contract newProgram{... */\n  mstore(0x40, 0x80)\n    /* \"contracts/confirming.sol\":1360:1437  student({name: \"Richard Jeremy Githuba\", admissionNumber: 115862, marks: 90}) */\n  mload(0x40)\n  dup1\n  0x60\n  add\n  0x40\n  mstore\n  dup1\n  mload(0x40)\n  dup1\n  0x40\n  add\n  0x40\n  mstore\n  dup1\n  0x16\n  dup2\n  mstore\n  0x20\n  add\n  0x52696368617264204a6572656d79204769746875626100000000000000000000\n  dup2\n  mstore\n  pop\n  dup2\n  mstore\n  0x20\n  add\n    /* \"contracts/confirming.sol\":1418:1424  115862 */\n  0x01c496\n    /* \"contracts/confirming.sol\":1360:1437  student({name: \"Richard Jeremy Githuba\", admissionNumber: 115862, marks: 90}) */\n  dup2\n  mstore\n  0x20\n  add\n    /* \"contracts/confirming.sol\":1433:1435  90 */\n  0x5a\n    /* \"contracts/confirming.sol\":1360:1437  student({name: \"Richard Jeremy Githuba\", admissionNumber: 115862, marks: 90}) */\n  dup2\n  mstore\n  pop\n    /* \"contracts/confirming.sol\":1335:1437  student public richard = student({name: \"Richard Jeremy Githuba\", admissionNumber: 115862, marks: 90}) */\n  0x02\n  0x00\n  dup3\n  add\n  mload\n  dup2\n  0x00\n  add\n  swap1\n  dup1\n  mload\n  swap1\n  0x20\n  add\n  swap1\n  tag_1\n  swap3\n  swap2\n  swap1\n  tag_2\n  jump\t// in\ntag_1:\n  pop\n  0x20\n  dup3\n  add\n  mload\n  dup2\n  0x01\n  add\n  sstore\n  0x40\n  dup3\n  add\n  mload\n  dup2\n  0x02\n  add\n  sstore\n  pop\n  pop\n    /* \"contracts/confirming.sol\":343:2867  contract newProgram{... */\n  callvalue\n  dup1\n  iszero\n  tag_3\n  jumpi\n  0x00\n  dup1\n  revert\ntag_3:\n  pop\n  jump(tag_4)\ntag_2:\n  dup3\n  dup1\n  sload\n  tag_5\n  swap1\n  tag_6\n  jump\t// in\ntag_5:\n  swap1\n  0x00\n  mstore\n  keccak256(0x00, 0x20)\n  swap1\n  0x1f\n  add\n  0x20\n  swap1\n  div\n  dup2\n  add\n  swap3\n  dup3\n  tag_8\n  jumpi\n  0x00\n  dup6\n  sstore\n  jump(tag_7)\ntag_8:\n  dup3\n  0x1f\n  lt\n  tag_9\n  jumpi\n  dup1\n  mload\n  not(0xff)\n  and\n  dup4\n  dup1\n  add\n  or\n  dup6\n  sstore\n  jump(tag_7)\ntag_9:\n  dup3\n  dup1\n  add\n  0x01\n  add\n  dup6\n  sstore\n  dup3\n  iszero\n  tag_7\n  jumpi\n  swap2\n  dup3\n  add\ntag_10:\n  dup3\n  dup2\n  gt\n  iszero\n  tag_11\n  jumpi\n  dup3\n  mload\n  dup3\n  sstore\n  swap2\n  0x20\n  add\n  swap2\n  swap1\n  0x01\n  add\n  swap1\n  jump(tag_10)\ntag_11:\ntag_7:\n  pop\n  swap1\n  pop\n  tag_12\n  swap2\n  swap1\n  tag_13\n  jump\t// in\ntag_12:\n  pop\n  swap1\n  jump\t// out\ntag_13:\ntag_14:\n  dup1\n  dup3\n  gt\n  iszero\n  tag_15\n  jumpi\n  0x00\n  dup2\n  0x00\n  swap1\n  sstore\n  pop\n  0x01\n  add\n  jump(tag_14)\ntag_15:\n  pop\n  swap1\n  jump\t// out\n    /* \"#utility.yul\":7:187   */\ntag_16:\n    /* \"#utility.yul\":55:132   */\n  0x4e487b7100000000000000000000000000000000000000000000000000000000\n    /* \"#utility.yul\":52:53   */\n  0x00\n    /* \"#utility.yul\":45:133   */\n  mstore\n    /* \"#utility.yul\":152:156   */\n  0x22\n    /* \"#utility.yul\":149:150   */\n  0x04\n    /* \"#utility.yul\":142:157   */\n  mstore\n    /* \"#utility.yul\":176:180   */\n  0x24\n    /* \"#utility.yul\":173:174   */\n  0x00\n    /* \"#utility.yul\":166:181   */\n  revert\n    /* \"#utility.yul\":193:513   */\ntag_6:\n    /* \"#utility.yul\":237:243   */\n  0x00\n    /* \"#utility.yul\":274:275   */\n  0x02\n    /* \"#utility.yul\":268:272   */\n  dup3\n    /* \"#utility.yul\":264:276   */\n  div\n    /* \"#utility.yul\":254:276   */\n  swap1\n  pop\n    /* \"#utility.yul\":321:322   */\n  0x01\n    /* \"#utility.yul\":315:319   */\n  dup3\n    /* \"#utility.yul\":311:323   */\n  and\n    /* \"#utility.yul\":342:360   */\n  dup1\n    /* \"#utility.yul\":332:413   */\n  tag_20\n  jumpi\n    /* \"#utility.yul\":398:402   */\n  0x7f\n    /* \"#utility.yul\":390:396   */\n  dup3\n    /* \"#utility.yul\":386:403   */\n  and\n    /* \"#utility.yul\":376:403   */\n  swap2\n  pop\n    /* \"#utility.yul\":332:413   */\ntag_20:\n    /* \"#utility.yul\":460:462   */\n  0x20\n    /* \"#utility.yul\":452:458   */\n  dup3\n    /* \"#utility.yul\":449:463   */\n  lt\n    /* \"#utility.yul\":429:447   */\n  dup2\n    /* \"#utility.yul\":426:464   */\n  eq\n    /* \"#utility.yul\":423:507   */\n  iszero\n  tag_21\n  jumpi\n    /* \"#utility.yul\":479:497   */\n  tag_22\n  tag_16\n  jump\t// in\ntag_22:\n    /* \"#utility.yul\":423:507   */\ntag_21:\n    /* \"#utility.yul\":244:513   */\n  pop\n    /* \"#utility.yul\":193:513   */\n  swap2\n  swap1\n  pop\n  jump\t// out\n    /* \"contracts/confirming.sol\":343:2867  contract newProgram{... */\ntag_4:\n  dataSize(sub_0)\n  dup1\n  dataOffset(sub_0)\n  0x00\n  codecopy\n  0x00\n  return\nstop\n\nsub_0: assembly {\n        /* \"contracts/confirming.sol\":343:2867  contract newProgram{... */\n      mstore(0x40, 0x80)\n      callvalue\n      dup1\n      iszero\n      tag_1\n      jumpi\n      0x00\n      dup1\n      revert\n    tag_1:\n      pop\n      jumpi(tag_2, lt(calldatasize, 0x04))\n      shr(0xe0, calldataload(0x00))\n      dup1\n      0x5794f8d2\n      gt\n      tag_10\n      jumpi\n      dup1\n      0x5794f8d2\n      eq\n      tag_6\n      jumpi\n      dup1\n      0x6057361d\n      eq\n      tag_7\n      jumpi\n      dup1\n      0x682ad06e\n      eq\n      tag_8\n      jumpi\n      dup1\n      0x797890a4\n      eq\n      tag_9\n      jumpi\n      jump(tag_2)\n    tag_10:\n      dup1\n      0x0c55699c\n      eq\n      tag_3\n      jumpi\n      dup1\n      0x3613a9f4\n      eq\n      tag_4\n      jumpi\n      dup1\n      0x4f2be91f\n      eq\n      tag_5\n      jumpi\n    tag_2:\n      0x00\n      dup1\n      revert\n        /* \"contracts/confirming.sol\":604:620  uint256 public x */\n    tag_3:\n      tag_11\n      tag_12\n      jump\t// in\n    tag_11:\n      mload(0x40)\n      tag_13\n      swap2\n      swap1\n      tag_14\n      jump\t// in\n    tag_13:\n      mload(0x40)\n      dup1\n      swap2\n      sub\n      swap1\n      return\n        /* \"contracts/confirming.sol\":1789:1811  student[] public class */\n    tag_4:\n      tag_15\n      0x04\n      dup1\n      calldatasize\n      sub\n      dup2\n      add\n      swap1\n      tag_16\n      swap2\n      swap1\n      tag_17\n      jump\t// in\n    tag_16:\n      tag_18\n      jump\t// in\n    tag_15:\n      mload(0x40)\n      tag_19\n      swap4\n      swap3\n      swap2\n      swap1\n      tag_20\n      jump\t// in\n    tag_19:\n      mload(0x40)\n      dup1\n      swap2\n      sub\n      swap1\n      return\n        /* \"contracts/confirming.sol\":2443:2515  function add() public pure returns(uint256){... */\n    tag_5:\n      tag_21\n      tag_22\n      jump\t// in\n    tag_21:\n      mload(0x40)\n      tag_23\n      swap2\n      swap1\n      tag_14\n      jump\t// in\n    tag_23:\n      mload(0x40)\n      dup1\n      swap2\n      sub\n      swap1\n      return\n        /* \"contracts/confirming.sol\":1335:1437  student public richard = student({name: \"Richard Jeremy Githuba\", admissionNumber: 115862, marks: 90}) */\n    tag_6:\n      tag_24\n      tag_25\n      jump\t// in\n    tag_24:\n      mload(0x40)\n      tag_26\n      swap4\n      swap3\n      swap2\n      swap1\n      tag_20\n      jump\t// in\n    tag_26:\n      mload(0x40)\n      dup1\n      swap2\n      sub\n      swap1\n      return\n        /* \"contracts/confirming.sol\":1966:2122  function store (uint256 y) public {... */\n    tag_7:\n      tag_27\n      0x04\n      dup1\n      calldatasize\n      sub\n      dup2\n      add\n      swap1\n      tag_28\n      swap2\n      swap1\n      tag_17\n      jump\t// in\n    tag_28:\n      tag_29\n      jump\t// in\n    tag_27:\n      stop\n        /* \"contracts/confirming.sol\":2624:2860  function addStudent(string memory _name, uint _admissionNumber, uint _marks) public {... */\n    tag_8:\n      tag_30\n      0x04\n      dup1\n      calldatasize\n      sub\n      dup2\n      add\n      swap1\n      tag_31\n      swap2\n      swap1\n      tag_32\n      jump\t// in\n    tag_31:\n      tag_33\n      jump\t// in\n    tag_30:\n      stop\n        /* \"contracts/confirming.sol\":2342:2414  function showA() public view returns(uint256){... */\n    tag_9:\n      tag_34\n      tag_35\n      jump\t// in\n    tag_34:\n      mload(0x40)\n      tag_36\n      swap2\n      swap1\n      tag_14\n      jump\t// in\n    tag_36:\n      mload(0x40)\n      dup1\n      swap2\n      sub\n      swap1\n      return\n        /* \"contracts/confirming.sol\":604:620  uint256 public x */\n    tag_12:\n      sload(0x00)\n      dup2\n      jump\t// out\n        /* \"contracts/confirming.sol\":1789:1811  student[] public class */\n    tag_18:\n      0x05\n      dup2\n      dup2\n      sload\n      dup2\n      lt\n      tag_37\n      jumpi\n      0x00\n      dup1\n      revert\n    tag_37:\n      swap1\n      0x00\n      mstore\n      keccak256(0x00, 0x20)\n      swap1\n      0x03\n      mul\n      add\n      0x00\n      swap2\n      pop\n      swap1\n      pop\n      dup1\n      0x00\n      add\n      dup1\n      sload\n      tag_39\n      swap1\n      tag_40\n      jump\t// in\n    tag_39:\n      dup1\n      0x1f\n      add\n      0x20\n      dup1\n      swap2\n      div\n      mul\n      0x20\n      add\n      mload(0x40)\n      swap1\n      dup2\n      add\n      0x40\n      mstore\n      dup1\n      swap3\n      swap2\n      swap1\n      dup2\n      dup2\n      mstore\n      0x20\n      add\n      dup3\n      dup1\n      sload\n      tag_41\n      swap1\n      tag_40\n      jump\t// in\n    tag_41:\n      dup1\n      iszero\n      tag_42\n      jumpi\n      dup1\n      0x1f\n      lt\n      tag_43\n      jumpi\n      0x0100\n      dup1\n      dup4\n      sload\n      div\n      mul\n      dup4\n      mstore\n      swap2\n      0x20\n      add\n      swap2\n      jump(tag_42)\n    tag_43:\n      dup3\n      add\n      swap2\n      swap1\n      0x00\n      mstore\n      keccak256(0x00, 0x20)\n      swap1\n    tag_44:\n      dup2\n      sload\n      dup2\n      mstore\n      swap1\n      0x01\n      add\n      swap1\n      0x20\n      add\n      dup1\n      dup4\n      gt\n      tag_44\n      jumpi\n      dup3\n      swap1\n      sub\n      0x1f\n      and\n      dup3\n      add\n      swap2\n    tag_42:\n      pop\n      pop\n      pop\n      pop\n      pop\n      swap1\n      dup1\n      0x01\n      add\n      sload\n      swap1\n      dup1\n      0x02\n      add\n      sload\n      swap1\n      pop\n      dup4\n      jump\t// out\n        /* \"contracts/confirming.sol\":2443:2515  function add() public pure returns(uint256){... */\n    tag_22:\n        /* \"contracts/confirming.sol\":2478:2485  uint256 */\n      0x00\n        /* \"contracts/confirming.sol\":2504:2507  1+1 */\n      0x02\n        /* \"contracts/confirming.sol\":2497:2507  return 1+1 */\n      swap1\n      pop\n        /* \"contracts/confirming.sol\":2443:2515  function add() public pure returns(uint256){... */\n      swap1\n      jump\t// out\n        /* \"contracts/confirming.sol\":1335:1437  student public richard = student({name: \"Richard Jeremy Githuba\", admissionNumber: 115862, marks: 90}) */\n    tag_25:\n      0x02\n      dup1\n      0x00\n      add\n      dup1\n      sload\n      tag_46\n      swap1\n      tag_40\n      jump\t// in\n    tag_46:\n      dup1\n      0x1f\n      add\n      0x20\n      dup1\n      swap2\n      div\n      mul\n      0x20\n      add\n      mload(0x40)\n      swap1\n      dup2\n      add\n      0x40\n      mstore\n      dup1\n      swap3\n      swap2\n      swap1\n      dup2\n      dup2\n      mstore\n      0x20\n      add\n      dup3\n      dup1\n      sload\n      tag_47\n      swap1\n      tag_40\n      jump\t// in\n    tag_47:\n      dup1\n      iszero\n      tag_48\n      jumpi\n      dup1\n      0x1f\n      lt\n      tag_49\n      jumpi\n      0x0100\n      dup1\n      dup4\n      sload\n      div\n      mul\n      dup4\n      mstore\n      swap2\n      0x20\n      add\n      swap2\n      jump(tag_48)\n    tag_49:\n      dup3\n      add\n      swap2\n      swap1\n      0x00\n      mstore\n      keccak256(0x00, 0x20)\n      swap1\n    tag_50:\n      dup2\n      sload\n      dup2\n      mstore\n      swap1\n      0x01\n      add\n      swap1\n      0x20\n      add\n      dup1\n      dup4\n      gt\n      tag_50\n      jumpi\n      dup3\n      swap1\n      sub\n      0x1f\n      and\n      dup3\n      add\n      swap2\n    tag_48:\n      pop\n      pop\n      pop\n      pop\n      pop\n      swap1\n      dup1\n      0x01\n      add\n      sload\n      swap1\n      dup1\n      0x02\n      add\n      sload\n      swap1\n      pop\n      dup4\n      jump\t// out\n        /* \"contracts/confirming.sol\":1966:2122  function store (uint256 y) public {... */\n    tag_29:\n        /* \"contracts/confirming.sol\":2113:2114  y */\n      dup1\n        /* \"contracts/confirming.sol\":2109:2110  A */\n      0x01\n        /* \"contracts/confirming.sol\":2109:2114  A = y */\n      dup2\n      swap1\n      sstore\n      pop\n        /* \"contracts/confirming.sol\":1966:2122  function store (uint256 y) public {... */\n      pop\n      jump\t// out\n        /* \"contracts/confirming.sol\":2624:2860  function addStudent(string memory _name, uint _admissionNumber, uint _marks) public {... */\n    tag_33:\n        /* \"contracts/confirming.sol\":2719:2744  student memory newStudent */\n      0x00\n        /* \"contracts/confirming.sol\":2747:2819  student({name: _name, admissionNumber: _admissionNumber, marks: _marks}) */\n      mload(0x40)\n      dup1\n      0x60\n      add\n      0x40\n      mstore\n      dup1\n        /* \"contracts/confirming.sol\":2762:2767  _name */\n      dup6\n        /* \"contracts/confirming.sol\":2747:2819  student({name: _name, admissionNumber: _admissionNumber, marks: _marks}) */\n      dup2\n      mstore\n      0x20\n      add\n        /* \"contracts/confirming.sol\":2786:2802  _admissionNumber */\n      dup5\n        /* \"contracts/confirming.sol\":2747:2819  student({name: _name, admissionNumber: _admissionNumber, marks: _marks}) */\n      dup2\n      mstore\n      0x20\n      add\n        /* \"contracts/confirming.sol\":2811:2817  _marks */\n      dup4\n        /* \"contracts/confirming.sol\":2747:2819  student({name: _name, admissionNumber: _admissionNumber, marks: _marks}) */\n      dup2\n      mstore\n      pop\n        /* \"contracts/confirming.sol\":2719:2819  student memory newStudent = student({name: _name, admissionNumber: _admissionNumber, marks: _marks}) */\n      swap1\n      pop\n        /* \"contracts/confirming.sol\":2830:2835  class */\n      0x05\n        /* \"contracts/confirming.sol\":2841:2851  newStudent */\n      dup2\n        /* \"contracts/confirming.sol\":2830:2852  class.push(newStudent) */\n      swap1\n      dup1\n      0x01\n      dup2\n      sload\n      add\n      dup1\n      dup3\n      sstore\n      dup1\n      swap2\n      pop\n      pop\n      0x01\n      swap1\n      sub\n      swap1\n      0x00\n      mstore\n      keccak256(0x00, 0x20)\n      swap1\n      0x03\n      mul\n      add\n      0x00\n      swap1\n      swap2\n      swap1\n      swap2\n      swap1\n      swap2\n      pop\n      0x00\n      dup3\n      add\n      mload\n      dup2\n      0x00\n      add\n      swap1\n      dup1\n      mload\n      swap1\n      0x20\n      add\n      swap1\n      tag_54\n      swap3\n      swap2\n      swap1\n      tag_55\n      jump\t// in\n    tag_54:\n      pop\n      0x20\n      dup3\n      add\n      mload\n      dup2\n      0x01\n      add\n      sstore\n      0x40\n      dup3\n      add\n      mload\n      dup2\n      0x02\n      add\n      sstore\n      pop\n      pop\n        /* \"contracts/confirming.sol\":2708:2860  {... */\n      pop\n        /* \"contracts/confirming.sol\":2624:2860  function addStudent(string memory _name, uint _admissionNumber, uint _marks) public {... */\n      pop\n      pop\n      pop\n      jump\t// out\n        /* \"contracts/confirming.sol\":2342:2414  function showA() public view returns(uint256){... */\n    tag_35:\n        /* \"contracts/confirming.sol\":2379:2386  uint256 */\n      0x00\n        /* \"contracts/confirming.sol\":2405:2406  A */\n      sload(0x01)\n        /* \"contracts/confirming.sol\":2398:2406  return A */\n      swap1\n      pop\n        /* \"contracts/confirming.sol\":2342:2414  function showA() public view returns(uint256){... */\n      swap1\n      jump\t// out\n    tag_55:\n      dup3\n      dup1\n      sload\n      tag_57\n      swap1\n      tag_40\n      jump\t// in\n    tag_57:\n      swap1\n      0x00\n      mstore\n      keccak256(0x00, 0x20)\n      swap1\n      0x1f\n      add\n      0x20\n      swap1\n      div\n      dup2\n      add\n      swap3\n      dup3\n      tag_59\n      jumpi\n      0x00\n      dup6\n      sstore\n      jump(tag_58)\n    tag_59:\n      dup3\n      0x1f\n      lt\n      tag_60\n      jumpi\n      dup1\n      mload\n      not(0xff)\n      and\n      dup4\n      dup1\n      add\n      or\n      dup6\n      sstore\n      jump(tag_58)\n    tag_60:\n      dup3\n      dup1\n      add\n      0x01\n      add\n      dup6\n      sstore\n      dup3\n      iszero\n      tag_58\n      jumpi\n      swap2\n      dup3\n      add\n    tag_61:\n      dup3\n      dup2\n      gt\n      iszero\n      tag_62\n      jumpi\n      dup3\n      mload\n      dup3\n      sstore\n      swap2\n      0x20\n      add\n      swap2\n      swap1\n      0x01\n      add\n      swap1\n      jump(tag_61)\n    tag_62:\n    tag_58:\n      pop\n      swap1\n      pop\n      tag_63\n      swap2\n      swap1\n      tag_64\n      jump\t// in\n    tag_63:\n      pop\n      swap1\n      jump\t// out\n    tag_64:\n    tag_65:\n      dup1\n      dup3\n      gt\n      iszero\n      tag_66\n      jumpi\n      0x00\n      dup2\n      0x00\n      swap1\n      sstore\n      pop\n      0x01\n      add\n      jump(tag_65)\n    tag_66:\n      pop\n      swap1\n      jump\t// out\n        /* \"#utility.yul\":7:84   */\n    tag_67:\n        /* \"#utility.yul\":44:51   */\n      0x00\n        /* \"#utility.yul\":73:78   */\n      dup2\n        /* \"#utility.yul\":62:78   */\n      swap1\n      pop\n        /* \"#utility.yul\":7:84   */\n      swap2\n      swap1\n      pop\n      jump\t// out\n        /* \"#utility.yul\":90:208   */\n    tag_68:\n        /* \"#utility.yul\":177:201   */\n      tag_92\n        /* \"#utility.yul\":195:200   */\n      dup2\n        /* \"#utility.yul\":177:201   */\n      tag_67\n      jump\t// in\n    tag_92:\n        /* \"#utility.yul\":172:175   */\n      dup3\n        /* \"#utility.yul\":165:202   */\n      mstore\n        /* \"#utility.yul\":90:208   */\n      pop\n      pop\n      jump\t// out\n        /* \"#utility.yul\":214:436   */\n    tag_14:\n        /* \"#utility.yul\":307:311   */\n      0x00\n        /* \"#utility.yul\":345:347   */\n      0x20\n        /* \"#utility.yul\":334:343   */\n      dup3\n        /* \"#utility.yul\":330:348   */\n      add\n        /* \"#utility.yul\":322:348   */\n      swap1\n      pop\n        /* \"#utility.yul\":358:429   */\n      tag_94\n        /* \"#utility.yul\":426:427   */\n      0x00\n        /* \"#utility.yul\":415:424   */\n      dup4\n        /* \"#utility.yul\":411:428   */\n      add\n        /* \"#utility.yul\":402:408   */\n      dup5\n        /* \"#utility.yul\":358:429   */\n      tag_68\n      jump\t// in\n    tag_94:\n        /* \"#utility.yul\":214:436   */\n      swap3\n      swap2\n      pop\n      pop\n      jump\t// out\n        /* \"#utility.yul\":442:517   */\n    tag_69:\n        /* \"#utility.yul\":475:481   */\n      0x00\n        /* \"#utility.yul\":508:510   */\n      0x40\n        /* \"#utility.yul\":502:511   */\n      mload\n        /* \"#utility.yul\":492:511   */\n      swap1\n      pop\n        /* \"#utility.yul\":442:517   */\n      swap1\n      jump\t// out\n        /* \"#utility.yul\":523:640   */\n    tag_70:\n        /* \"#utility.yul\":632:633   */\n      0x00\n        /* \"#utility.yul\":629:630   */\n      dup1\n        /* \"#utility.yul\":622:634   */\n      revert\n        /* \"#utility.yul\":646:763   */\n    tag_71:\n        /* \"#utility.yul\":755:756   */\n      0x00\n        /* \"#utility.yul\":752:753   */\n      dup1\n        /* \"#utility.yul\":745:757   */\n      revert\n        /* \"#utility.yul\":769:891   */\n    tag_72:\n        /* \"#utility.yul\":842:866   */\n      tag_99\n        /* \"#utility.yul\":860:865   */\n      dup2\n        /* \"#utility.yul\":842:866   */\n      tag_67\n      jump\t// in\n    tag_99:\n        /* \"#utility.yul\":835:840   */\n      dup2\n        /* \"#utility.yul\":832:867   */\n      eq\n        /* \"#utility.yul\":822:885   */\n      tag_100\n      jumpi\n        /* \"#utility.yul\":881:882   */\n      0x00\n        /* \"#utility.yul\":878:879   */\n      dup1\n        /* \"#utility.yul\":871:883   */\n      revert\n        /* \"#utility.yul\":822:885   */\n    tag_100:\n        /* \"#utility.yul\":769:891   */\n      pop\n      jump\t// out\n        /* \"#utility.yul\":897:1036   */\n    tag_73:\n        /* \"#utility.yul\":943:948   */\n      0x00\n        /* \"#utility.yul\":981:987   */\n      dup2\n        /* \"#utility.yul\":968:988   */\n      calldataload\n        /* \"#utility.yul\":959:988   */\n      swap1\n      pop\n        /* \"#utility.yul\":997:1030   */\n      tag_102\n        /* \"#utility.yul\":1024:1029   */\n      dup2\n        /* \"#utility.yul\":997:1030   */\n      tag_72\n      jump\t// in\n    tag_102:\n        /* \"#utility.yul\":897:1036   */\n      swap3\n      swap2\n      pop\n      pop\n      jump\t// out\n        /* \"#utility.yul\":1042:1371   */\n    tag_17:\n        /* \"#utility.yul\":1101:1107   */\n      0x00\n        /* \"#utility.yul\":1150:1152   */\n      0x20\n        /* \"#utility.yul\":1138:1147   */\n      dup3\n        /* \"#utility.yul\":1129:1136   */\n      dup5\n        /* \"#utility.yul\":1125:1148   */\n      sub\n        /* \"#utility.yul\":1121:1153   */\n      slt\n        /* \"#utility.yul\":1118:1237   */\n      iszero\n      tag_104\n      jumpi\n        /* \"#utility.yul\":1156:1235   */\n      tag_105\n      tag_70\n      jump\t// in\n    tag_105:\n        /* \"#utility.yul\":1118:1237   */\n    tag_104:\n        /* \"#utility.yul\":1276:1277   */\n      0x00\n        /* \"#utility.yul\":1301:1354   */\n      tag_106\n        /* \"#utility.yul\":1346:1353   */\n      dup5\n        /* \"#utility.yul\":1337:1343   */\n      dup3\n        /* \"#utility.yul\":1326:1335   */\n      dup6\n        /* \"#utility.yul\":1322:1344   */\n      add\n        /* \"#utility.yul\":1301:1354   */\n      tag_73\n      jump\t// in\n    tag_106:\n        /* \"#utility.yul\":1291:1354   */\n      swap2\n      pop\n        /* \"#utility.yul\":1247:1364   */\n      pop\n        /* \"#utility.yul\":1042:1371   */\n      swap3\n      swap2\n      pop\n      pop\n      jump\t// out\n        /* \"#utility.yul\":1377:1476   */\n    tag_74:\n        /* \"#utility.yul\":1429:1435   */\n      0x00\n        /* \"#utility.yul\":1463:1468   */\n      dup2\n        /* \"#utility.yul\":1457:1469   */\n      mload\n        /* \"#utility.yul\":1447:1469   */\n      swap1\n      pop\n        /* \"#utility.yul\":1377:1476   */\n      swap2\n      swap1\n      pop\n      jump\t// out\n        /* \"#utility.yul\":1482:1651   */\n    tag_75:\n        /* \"#utility.yul\":1566:1577   */\n      0x00\n        /* \"#utility.yul\":1600:1606   */\n      dup3\n        /* \"#utility.yul\":1595:1598   */\n      dup3\n        /* \"#utility.yul\":1588:1607   */\n      mstore\n        /* \"#utility.yul\":1640:1644   */\n      0x20\n        /* \"#utility.yul\":1635:1638   */\n      dup3\n        /* \"#utility.yul\":1631:1645   */\n      add\n        /* \"#utility.yul\":1616:1645   */\n      swap1\n      pop\n        /* \"#utility.yul\":1482:1651   */\n      swap3\n      swap2\n      pop\n      pop\n      jump\t// out\n        /* \"#utility.yul\":1657:1964   */\n    tag_76:\n        /* \"#utility.yul\":1725:1726   */\n      0x00\n        /* \"#utility.yul\":1735:1848   */\n    tag_110:\n        /* \"#utility.yul\":1749:1755   */\n      dup4\n        /* \"#utility.yul\":1746:1747   */\n      dup2\n        /* \"#utility.yul\":1743:1756   */\n      lt\n        /* \"#utility.yul\":1735:1848   */\n      iszero\n      tag_112\n      jumpi\n        /* \"#utility.yul\":1834:1835   */\n      dup1\n        /* \"#utility.yul\":1829:1832   */\n      dup3\n        /* \"#utility.yul\":1825:1836   */\n      add\n        /* \"#utility.yul\":1819:1837   */\n      mload\n        /* \"#utility.yul\":1815:1816   */\n      dup2\n        /* \"#utility.yul\":1810:1813   */\n      dup5\n        /* \"#utility.yul\":1806:1817   */\n      add\n        /* \"#utility.yul\":1799:1838   */\n      mstore\n        /* \"#utility.yul\":1771:1773   */\n      0x20\n        /* \"#utility.yul\":1768:1769   */\n      dup2\n        /* \"#utility.yul\":1764:1774   */\n      add\n        /* \"#utility.yul\":1759:1774   */\n      swap1\n      pop\n        /* \"#utility.yul\":1735:1848   */\n      jump(tag_110)\n    tag_112:\n        /* \"#utility.yul\":1866:1872   */\n      dup4\n        /* \"#utility.yul\":1863:1864   */\n      dup2\n        /* \"#utility.yul\":1860:1873   */\n      gt\n        /* \"#utility.yul\":1857:1958   */\n      iszero\n      tag_113\n      jumpi\n        /* \"#utility.yul\":1946:1947   */\n      0x00\n        /* \"#utility.yul\":1937:1943   */\n      dup5\n        /* \"#utility.yul\":1932:1935   */\n      dup5\n        /* \"#utility.yul\":1928:1944   */\n      add\n        /* \"#utility.yul\":1921:1948   */\n      mstore\n        /* \"#utility.yul\":1857:1958   */\n    tag_113:\n        /* \"#utility.yul\":1706:1964   */\n      pop\n        /* \"#utility.yul\":1657:1964   */\n      pop\n      pop\n      pop\n      jump\t// out\n        /* \"#utility.yul\":1970:2072   */\n    tag_77:\n        /* \"#utility.yul\":2011:2017   */\n      0x00\n        /* \"#utility.yul\":2062:2064   */\n      0x1f\n        /* \"#utility.yul\":2058:2065   */\n      not\n        /* \"#utility.yul\":2053:2055   */\n      0x1f\n        /* \"#utility.yul\":2046:2051   */\n      dup4\n        /* \"#utility.yul\":2042:2056   */\n      add\n        /* \"#utility.yul\":2038:2066   */\n      and\n        /* \"#utility.yul\":2028:2066   */\n      swap1\n      pop\n        /* \"#utility.yul\":1970:2072   */\n      swap2\n      swap1\n      pop\n      jump\t// out\n        /* \"#utility.yul\":2078:2442   */\n    tag_78:\n        /* \"#utility.yul\":2166:2169   */\n      0x00\n        /* \"#utility.yul\":2194:2233   */\n      tag_116\n        /* \"#utility.yul\":2227:2232   */\n      dup3\n        /* \"#utility.yul\":2194:2233   */\n      tag_74\n      jump\t// in\n    tag_116:\n        /* \"#utility.yul\":2249:2320   */\n      tag_117\n        /* \"#utility.yul\":2313:2319   */\n      dup2\n        /* \"#utility.yul\":2308:2311   */\n      dup6\n        /* \"#utility.yul\":2249:2320   */\n      tag_75\n      jump\t// in\n    tag_117:\n        /* \"#utility.yul\":2242:2320   */\n      swap4\n      pop\n        /* \"#utility.yul\":2329:2381   */\n      tag_118\n        /* \"#utility.yul\":2374:2380   */\n      dup2\n        /* \"#utility.yul\":2369:2372   */\n      dup6\n        /* \"#utility.yul\":2362:2366   */\n      0x20\n        /* \"#utility.yul\":2355:2360   */\n      dup7\n        /* \"#utility.yul\":2351:2367   */\n      add\n        /* \"#utility.yul\":2329:2381   */\n      tag_76\n      jump\t// in\n    tag_118:\n        /* \"#utility.yul\":2406:2435   */\n      tag_119\n        /* \"#utility.yul\":2428:2434   */\n      dup2\n        /* \"#utility.yul\":2406:2435   */\n      tag_77\n      jump\t// in\n    tag_119:\n        /* \"#utility.yul\":2401:2404   */\n      dup5\n        /* \"#utility.yul\":2397:2436   */\n      add\n        /* \"#utility.yul\":2390:2436   */\n      swap2\n      pop\n        /* \"#utility.yul\":2170:2442   */\n      pop\n        /* \"#utility.yul\":2078:2442   */\n      swap3\n      swap2\n      pop\n      pop\n      jump\t// out\n        /* \"#utility.yul\":2448:2981   */\n    tag_20:\n        /* \"#utility.yul\":2617:2621   */\n      0x00\n        /* \"#utility.yul\":2655:2657   */\n      0x60\n        /* \"#utility.yul\":2644:2653   */\n      dup3\n        /* \"#utility.yul\":2640:2658   */\n      add\n        /* \"#utility.yul\":2632:2658   */\n      swap1\n      pop\n        /* \"#utility.yul\":2704:2713   */\n      dup2\n        /* \"#utility.yul\":2698:2702   */\n      dup2\n        /* \"#utility.yul\":2694:2714   */\n      sub\n        /* \"#utility.yul\":2690:2691   */\n      0x00\n        /* \"#utility.yul\":2679:2688   */\n      dup4\n        /* \"#utility.yul\":2675:2692   */\n      add\n        /* \"#utility.yul\":2668:2715   */\n      mstore\n        /* \"#utility.yul\":2732:2810   */\n      tag_121\n        /* \"#utility.yul\":2805:2809   */\n      dup2\n        /* \"#utility.yul\":2796:2802   */\n      dup7\n        /* \"#utility.yul\":2732:2810   */\n      tag_78\n      jump\t// in\n    tag_121:\n        /* \"#utility.yul\":2724:2810   */\n      swap1\n      pop\n        /* \"#utility.yul\":2820:2892   */\n      tag_122\n        /* \"#utility.yul\":2888:2890   */\n      0x20\n        /* \"#utility.yul\":2877:2886   */\n      dup4\n        /* \"#utility.yul\":2873:2891   */\n      add\n        /* \"#utility.yul\":2864:2870   */\n      dup6\n        /* \"#utility.yul\":2820:2892   */\n      tag_68\n      jump\t// in\n    tag_122:\n        /* \"#utility.yul\":2902:2974   */\n      tag_123\n        /* \"#utility.yul\":2970:2972   */\n      0x40\n        /* \"#utility.yul\":2959:2968   */\n      dup4\n        /* \"#utility.yul\":2955:2973   */\n      add\n        /* \"#utility.yul\":2946:2952   */\n      dup5\n        /* \"#utility.yul\":2902:2974   */\n      tag_68\n      jump\t// in\n    tag_123:\n        /* \"#utility.yul\":2448:2981   */\n      swap5\n      swap4\n      pop\n      pop\n      pop\n      pop\n      jump\t// out\n        /* \"#utility.yul\":2987:3104   */\n    tag_79:\n        /* \"#utility.yul\":3096:3097   */\n      0x00\n        /* \"#utility.yul\":3093:3094   */\n      dup1\n        /* \"#utility.yul\":3086:3098   */\n      revert\n        /* \"#utility.yul\":3110:3227   */\n    tag_80:\n        /* \"#utility.yul\":3219:3220   */\n      0x00\n        /* \"#utility.yul\":3216:3217   */\n      dup1\n        /* \"#utility.yul\":3209:3221   */\n      revert\n        /* \"#utility.yul\":3233:3413   */\n    tag_81:\n        /* \"#utility.yul\":3281:3358   */\n      0x4e487b7100000000000000000000000000000000000000000000000000000000\n        /* \"#utility.yul\":3278:3279   */\n      0x00\n        /* \"#utility.yul\":3271:3359   */\n      mstore\n        /* \"#utility.yul\":3378:3382   */\n      0x41\n        /* \"#utility.yul\":3375:3376   */\n      0x04\n        /* \"#utility.yul\":3368:3383   */\n      mstore\n        /* \"#utility.yul\":3402:3406   */\n      0x24\n        /* \"#utility.yul\":3399:3400   */\n      0x00\n        /* \"#utility.yul\":3392:3407   */\n      revert\n        /* \"#utility.yul\":3419:3700   */\n    tag_82:\n        /* \"#utility.yul\":3502:3529   */\n      tag_128\n        /* \"#utility.yul\":3524:3528   */\n      dup3\n        /* \"#utility.yul\":3502:3529   */\n      tag_77\n      jump\t// in\n    tag_128:\n        /* \"#utility.yul\":3494:3500   */\n      dup2\n        /* \"#utility.yul\":3490:3530   */\n      add\n        /* \"#utility.yul\":3632:3638   */\n      dup2\n        /* \"#utility.yul\":3620:3630   */\n      dup2\n        /* \"#utility.yul\":3617:3639   */\n      lt\n        /* \"#utility.yul\":3596:3614   */\n      0xffffffffffffffff\n        /* \"#utility.yul\":3584:3594   */\n      dup3\n        /* \"#utility.yul\":3581:3615   */\n      gt\n        /* \"#utility.yul\":3578:3640   */\n      or\n        /* \"#utility.yul\":3575:3663   */\n      iszero\n      tag_129\n      jumpi\n        /* \"#utility.yul\":3643:3661   */\n      tag_130\n      tag_81\n      jump\t// in\n    tag_130:\n        /* \"#utility.yul\":3575:3663   */\n    tag_129:\n        /* \"#utility.yul\":3683:3693   */\n      dup1\n        /* \"#utility.yul\":3679:3681   */\n      0x40\n        /* \"#utility.yul\":3672:3694   */\n      mstore\n        /* \"#utility.yul\":3462:3700   */\n      pop\n        /* \"#utility.yul\":3419:3700   */\n      pop\n      pop\n      jump\t// out\n        /* \"#utility.yul\":3706:3835   */\n    tag_83:\n        /* \"#utility.yul\":3740:3746   */\n      0x00\n        /* \"#utility.yul\":3767:3787   */\n      tag_132\n      tag_69\n      jump\t// in\n    tag_132:\n        /* \"#utility.yul\":3757:3787   */\n      swap1\n      pop\n        /* \"#utility.yul\":3796:3829   */\n      tag_133\n        /* \"#utility.yul\":3824:3828   */\n      dup3\n        /* \"#utility.yul\":3816:3822   */\n      dup3\n        /* \"#utility.yul\":3796:3829   */\n      tag_82\n      jump\t// in\n    tag_133:\n        /* \"#utility.yul\":3706:3835   */\n      swap2\n      swap1\n      pop\n      jump\t// out\n        /* \"#utility.yul\":3841:4149   */\n    tag_84:\n        /* \"#utility.yul\":3903:3907   */\n      0x00\n        /* \"#utility.yul\":3993:4011   */\n      0xffffffffffffffff\n        /* \"#utility.yul\":3985:3991   */\n      dup3\n        /* \"#utility.yul\":3982:4012   */\n      gt\n        /* \"#utility.yul\":3979:4035   */\n      iszero\n      tag_135\n      jumpi\n        /* \"#utility.yul\":4015:4033   */\n      tag_136\n      tag_81\n      jump\t// in\n    tag_136:\n        /* \"#utility.yul\":3979:4035   */\n    tag_135:\n        /* \"#utility.yul\":4053:4082   */\n      tag_137\n        /* \"#utility.yul\":4075:4081   */\n      dup3\n        /* \"#utility.yul\":4053:4082   */\n      tag_77\n      jump\t// in\n    tag_137:\n        /* \"#utility.yul\":4045:4082   */\n      swap1\n      pop\n        /* \"#utility.yul\":4137:4141   */\n      0x20\n        /* \"#utility.yul\":4131:4135   */\n      dup2\n        /* \"#utility.yul\":4127:4142   */\n      add\n        /* \"#utility.yul\":4119:4142   */\n      swap1\n      pop\n        /* \"#utility.yul\":3841:4149   */\n      swap2\n      swap1\n      pop\n      jump\t// out\n        /* \"#utility.yul\":4155:4309   */\n    tag_85:\n        /* \"#utility.yul\":4239:4245   */\n      dup3\n        /* \"#utility.yul\":4234:4237   */\n      dup2\n        /* \"#utility.yul\":4229:4232   */\n      dup4\n        /* \"#utility.yul\":4216:4246   */\n      calldatacopy\n        /* \"#utility.yul\":4301:4302   */\n      0x00\n        /* \"#utility.yul\":4292:4298   */\n      dup4\n        /* \"#utility.yul\":4287:4290   */\n      dup4\n        /* \"#utility.yul\":4283:4299   */\n      add\n        /* \"#utility.yul\":4276:4303   */\n      mstore\n        /* \"#utility.yul\":4155:4309   */\n      pop\n      pop\n      pop\n      jump\t// out\n        /* \"#utility.yul\":4315:4727   */\n    tag_86:\n        /* \"#utility.yul\":4393:4398   */\n      0x00\n        /* \"#utility.yul\":4418:4484   */\n      tag_140\n        /* \"#utility.yul\":4434:4483   */\n      tag_141\n        /* \"#utility.yul\":4476:4482   */\n      dup5\n        /* \"#utility.yul\":4434:4483   */\n      tag_84\n      jump\t// in\n    tag_141:\n        /* \"#utility.yul\":4418:4484   */\n      tag_83\n      jump\t// in\n    tag_140:\n        /* \"#utility.yul\":4409:4484   */\n      swap1\n      pop\n        /* \"#utility.yul\":4507:4513   */\n      dup3\n        /* \"#utility.yul\":4500:4505   */\n      dup2\n        /* \"#utility.yul\":4493:4514   */\n      mstore\n        /* \"#utility.yul\":4545:4549   */\n      0x20\n        /* \"#utility.yul\":4538:4543   */\n      dup2\n        /* \"#utility.yul\":4534:4550   */\n      add\n        /* \"#utility.yul\":4583:4586   */\n      dup5\n        /* \"#utility.yul\":4574:4580   */\n      dup5\n        /* \"#utility.yul\":4569:4572   */\n      dup5\n        /* \"#utility.yul\":4565:4581   */\n      add\n        /* \"#utility.yul\":4562:4587   */\n      gt\n        /* \"#utility.yul\":4559:4671   */\n      iszero\n      tag_142\n      jumpi\n        /* \"#utility.yul\":4590:4669   */\n      tag_143\n      tag_80\n      jump\t// in\n    tag_143:\n        /* \"#utility.yul\":4559:4671   */\n    tag_142:\n        /* \"#utility.yul\":4680:4721   */\n      tag_144\n        /* \"#utility.yul\":4714:4720   */\n      dup5\n        /* \"#utility.yul\":4709:4712   */\n      dup3\n        /* \"#utility.yul\":4704:4707   */\n      dup6\n        /* \"#utility.yul\":4680:4721   */\n      tag_85\n      jump\t// in\n    tag_144:\n        /* \"#utility.yul\":4399:4727   */\n      pop\n        /* \"#utility.yul\":4315:4727   */\n      swap4\n      swap3\n      pop\n      pop\n      pop\n      jump\t// out\n        /* \"#utility.yul\":4747:5087   */\n    tag_87:\n        /* \"#utility.yul\":4803:4808   */\n      0x00\n        /* \"#utility.yul\":4852:4855   */\n      dup3\n        /* \"#utility.yul\":4845:4849   */\n      0x1f\n        /* \"#utility.yul\":4837:4843   */\n      dup4\n        /* \"#utility.yul\":4833:4850   */\n      add\n        /* \"#utility.yul\":4829:4856   */\n      slt\n        /* \"#utility.yul\":4819:4941   */\n      tag_146\n      jumpi\n        /* \"#utility.yul\":4860:4939   */\n      tag_147\n      tag_79\n      jump\t// in\n    tag_147:\n        /* \"#utility.yul\":4819:4941   */\n    tag_146:\n        /* \"#utility.yul\":4977:4983   */\n      dup2\n        /* \"#utility.yul\":4964:4984   */\n      calldataload\n        /* \"#utility.yul\":5002:5081   */\n      tag_148\n        /* \"#utility.yul\":5077:5080   */\n      dup5\n        /* \"#utility.yul\":5069:5075   */\n      dup3\n        /* \"#utility.yul\":5062:5066   */\n      0x20\n        /* \"#utility.yul\":5054:5060   */\n      dup7\n        /* \"#utility.yul\":5050:5067   */\n      add\n        /* \"#utility.yul\":5002:5081   */\n      tag_86\n      jump\t// in\n    tag_148:\n        /* \"#utility.yul\":4993:5081   */\n      swap2\n      pop\n        /* \"#utility.yul\":4809:5087   */\n      pop\n        /* \"#utility.yul\":4747:5087   */\n      swap3\n      swap2\n      pop\n      pop\n      jump\t// out\n        /* \"#utility.yul\":5093:5892   */\n    tag_32:\n        /* \"#utility.yul\":5180:5186   */\n      0x00\n        /* \"#utility.yul\":5188:5194   */\n      dup1\n        /* \"#utility.yul\":5196:5202   */\n      0x00\n        /* \"#utility.yul\":5245:5247   */\n      0x60\n        /* \"#utility.yul\":5233:5242   */\n      dup5\n        /* \"#utility.yul\":5224:5231   */\n      dup7\n        /* \"#utility.yul\":5220:5243   */\n      sub\n        /* \"#utility.yul\":5216:5248   */\n      slt\n        /* \"#utility.yul\":5213:5332   */\n      iszero\n      tag_150\n      jumpi\n        /* \"#utility.yul\":5251:5330   */\n      tag_151\n      tag_70\n      jump\t// in\n    tag_151:\n        /* \"#utility.yul\":5213:5332   */\n    tag_150:\n        /* \"#utility.yul\":5399:5400   */\n      0x00\n        /* \"#utility.yul\":5388:5397   */\n      dup5\n        /* \"#utility.yul\":5384:5401   */\n      add\n        /* \"#utility.yul\":5371:5402   */\n      calldataload\n        /* \"#utility.yul\":5429:5447   */\n      0xffffffffffffffff\n        /* \"#utility.yul\":5421:5427   */\n      dup2\n        /* \"#utility.yul\":5418:5448   */\n      gt\n        /* \"#utility.yul\":5415:5532   */\n      iszero\n      tag_152\n      jumpi\n        /* \"#utility.yul\":5451:5530   */\n      tag_153\n      tag_71\n      jump\t// in\n    tag_153:\n        /* \"#utility.yul\":5415:5532   */\n    tag_152:\n        /* \"#utility.yul\":5556:5619   */\n      tag_154\n        /* \"#utility.yul\":5611:5618   */\n      dup7\n        /* \"#utility.yul\":5602:5608   */\n      dup3\n        /* \"#utility.yul\":5591:5600   */\n      dup8\n        /* \"#utility.yul\":5587:5609   */\n      add\n        /* \"#utility.yul\":5556:5619   */\n      tag_87\n      jump\t// in\n    tag_154:\n        /* \"#utility.yul\":5546:5619   */\n      swap4\n      pop\n        /* \"#utility.yul\":5342:5629   */\n      pop\n        /* \"#utility.yul\":5668:5670   */\n      0x20\n        /* \"#utility.yul\":5694:5747   */\n      tag_155\n        /* \"#utility.yul\":5739:5746   */\n      dup7\n        /* \"#utility.yul\":5730:5736   */\n      dup3\n        /* \"#utility.yul\":5719:5728   */\n      dup8\n        /* \"#utility.yul\":5715:5737   */\n      add\n        /* \"#utility.yul\":5694:5747   */\n      tag_73\n      jump\t// in\n    tag_155:\n        /* \"#utility.yul\":5684:5747   */\n      swap3\n      pop\n        /* \"#utility.yul\":5639:5757   */\n      pop\n        /* \"#utility.yul\":5796:5798   */\n      0x40\n        /* \"#utility.yul\":5822:5875   */\n      tag_156\n        /* \"#utility.yul\":5867:5874   */\n      dup7\n        /* \"#utility.yul\":5858:5864   */\n      dup3\n        /* \"#utility.yul\":5847:5856   */\n      dup8\n        /* \"#utility.yul\":5843:5865   */\n      add\n        /* \"#utility.yul\":5822:5875   */\n      tag_73\n      jump\t// in\n    tag_156:\n        /* \"#utility.yul\":5812:5875   */\n      swap2\n      pop\n        /* \"#utility.yul\":5767:5885   */\n      pop\n        /* \"#utility.yul\":5093:5892   */\n      swap3\n      pop\n      swap3\n      pop\n      swap3\n      jump\t// out\n        /* \"#utility.yul\":5898:6078   */\n    tag_88:\n        /* \"#utility.yul\":5946:6023   */\n      0x4e487b7100000000000000000000000000000000000000000000000000000000\n        /* \"#utility.yul\":5943:5944   */\n      0x00\n        /* \"#utility.yul\":5936:6024   */\n      mstore\n        /* \"#utility.yul\":6043:6047   */\n      0x22\n        /* \"#utility.yul\":6040:6041   */\n      0x04\n        /* \"#utility.yul\":6033:6048   */\n      mstore\n        /* \"#utility.yul\":6067:6071   */\n      0x24\n        /* \"#utility.yul\":6064:6065   */\n      0x00\n        /* \"#utility.yul\":6057:6072   */\n      revert\n        /* \"#utility.yul\":6084:6404   */\n    tag_40:\n        /* \"#utility.yul\":6128:6134   */\n      0x00\n        /* \"#utility.yul\":6165:6166   */\n      0x02\n        /* \"#utility.yul\":6159:6163   */\n      dup3\n        /* \"#utility.yul\":6155:6167   */\n      div\n        /* \"#utility.yul\":6145:6167   */\n      swap1\n      pop\n        /* \"#utility.yul\":6212:6213   */\n      0x01\n        /* \"#utility.yul\":6206:6210   */\n      dup3\n        /* \"#utility.yul\":6202:6214   */\n      and\n        /* \"#utility.yul\":6233:6251   */\n      dup1\n        /* \"#utility.yul\":6223:6304   */\n      tag_159\n      jumpi\n        /* \"#utility.yul\":6289:6293   */\n      0x7f\n        /* \"#utility.yul\":6281:6287   */\n      dup3\n        /* \"#utility.yul\":6277:6294   */\n      and\n        /* \"#utility.yul\":6267:6294   */\n      swap2\n      pop\n        /* \"#utility.yul\":6223:6304   */\n    tag_159:\n        /* \"#utility.yul\":6351:6353   */\n      0x20\n        /* \"#utility.yul\":6343:6349   */\n      dup3\n        /* \"#utility.yul\":6340:6354   */\n      lt\n        /* \"#utility.yul\":6320:6338   */\n      dup2\n        /* \"#utility.yul\":6317:6355   */\n      eq\n        /* \"#utility.yul\":6314:6398   */\n      iszero\n      tag_160\n      jumpi\n        /* \"#utility.yul\":6370:6388   */\n      tag_161\n      tag_88\n      jump\t// in\n    tag_161:\n        /* \"#utility.yul\":6314:6398   */\n    tag_160:\n        /* \"#utility.yul\":6135:6404   */\n      pop\n        /* \"#utility.yul\":6084:6404   */\n      swap2\n      swap1\n      pop\n      jump\t// out\n\n    auxdata: 0xa2646970667358221220399f58fc83ecf0e215da57351e8ebb5495234a5c34395026ff083231cd7f27f364736f6c63430008080033\n}\n",
				"bytecode": {
					"linkReferences": {},
					"object": "608060405260405180606001604052806040518060400160405280601681526020017f52696368617264204a6572656d7920476974687562610000000000000000000081525081526020016201c4968152602001605a8152506002600082015181600001908051906020019061007692919061009f565b506020820151816001015560408201518160020155505034801561009957600080fd5b506101a3565b8280546100ab90610171565b90600052602060002090601f0160209004810192826100cd5760008555610114565b82601f106100e657805160ff1916838001178555610114565b82800160010185558215610114579182015b828111156101135782518255916020019190600101906100f8565b5b5090506101219190610125565b5090565b5b8082111561013e576000816000905550600101610126565b5090565b7f4e487b7100000000000000000000000000000000000000000000000000000000600052602260045260246000fd5b6000600282049050600182168061018957607f821691505b6020821081141561019d5761019c610142565b5b50919050565b6107c5806101b26000396000f3fe608060405234801561001057600080fd5b506004361061007d5760003560e01c80635794f8d21161005b5780635794f8d2146100f05780636057361d14610110578063682ad06e1461012c578063797890a4146101485761007d565b80630c55699c146100825780633613a9f4146100a05780634f2be91f146100d2575b600080fd5b61008a610166565b604051610097919061042b565b60405180910390f35b6100ba60048036038101906100b59190610486565b61016c565b6040516100c99392919061054c565b60405180910390f35b6100da61022e565b6040516100e7919061042b565b60405180910390f35b6100f8610237565b6040516101079392919061054c565b60405180910390f35b61012a60048036038101906101259190610486565b6102d7565b005b610146600480360381019061014191906106bf565b6102e1565b005b610150610365565b60405161015d919061042b565b60405180910390f35b60005481565b6005818154811061017c57600080fd5b906000526020600020906003020160009150905080600001805461019f9061075d565b80601f01602080910402602001604051908101604052809291908181526020018280546101cb9061075d565b80156102185780601f106101ed57610100808354040283529160200191610218565b820191906000526020600020905b8154815290600101906020018083116101fb57829003601f168201915b5050505050908060010154908060020154905083565b60006002905090565b60028060000180546102489061075d565b80601f01602080910402602001604051908101604052809291908181526020018280546102749061075d565b80156102c15780601f10610296576101008083540402835291602001916102c1565b820191906000526020600020905b8154815290600101906020018083116102a457829003601f168201915b5050505050908060010154908060020154905083565b8060018190555050565b600060405180606001604052808581526020018481526020018381525090506005819080600181540180825580915050600190039060005260206000209060030201600090919091909150600082015181600001908051906020019061034892919061036f565b506020820151816001015560408201518160020155505050505050565b6000600154905090565b82805461037b9061075d565b90600052602060002090601f01602090048101928261039d57600085556103e4565b82601f106103b657805160ff19168380011785556103e4565b828001600101855582156103e4579182015b828111156103e35782518255916020019190600101906103c8565b5b5090506103f191906103f5565b5090565b5b8082111561040e5760008160009055506001016103f6565b5090565b6000819050919050565b61042581610412565b82525050565b6000602082019050610440600083018461041c565b92915050565b6000604051905090565b600080fd5b600080fd5b61046381610412565b811461046e57600080fd5b50565b6000813590506104808161045a565b92915050565b60006020828403121561049c5761049b610450565b5b60006104aa84828501610471565b91505092915050565b600081519050919050565b600082825260208201905092915050565b60005b838110156104ed5780820151818401526020810190506104d2565b838111156104fc576000848401525b50505050565b6000601f19601f8301169050919050565b600061051e826104b3565b61052881856104be565b93506105388185602086016104cf565b61054181610502565b840191505092915050565b600060608201905081810360008301526105668186610513565b9050610575602083018561041c565b610582604083018461041c565b949350505050565b600080fd5b600080fd5b7f4e487b7100000000000000000000000000000000000000000000000000000000600052604160045260246000fd5b6105cc82610502565b810181811067ffffffffffffffff821117156105eb576105ea610594565b5b80604052505050565b60006105fe610446565b905061060a82826105c3565b919050565b600067ffffffffffffffff82111561062a57610629610594565b5b61063382610502565b9050602081019050919050565b82818337600083830152505050565b600061066261065d8461060f565b6105f4565b90508281526020810184848401111561067e5761067d61058f565b5b610689848285610640565b509392505050565b600082601f8301126106a6576106a561058a565b5b81356106b684826020860161064f565b91505092915050565b6000806000606084860312156106d8576106d7610450565b5b600084013567ffffffffffffffff8111156106f6576106f5610455565b5b61070286828701610691565b935050602061071386828701610471565b925050604061072486828701610471565b9150509250925092565b7f4e487b7100000000000000000000000000000000000000000000000000000000600052602260045260246000fd5b6000600282049050600182168061077557607f821691505b602082108114156107895761078861072e565b5b5091905056fea2646970667358221220399f58fc83ecf0e215da57351e8ebb5495234a5c34395026ff083231cd7f27f364736f6c63430008080033",
					"opcodes": "PUSH1 0x80 PUSH1 0x40 MSTORE PUSH1 0x40 MLOAD DUP1 PUSH1 0x60 ADD PUSH1 0x40 MSTORE DUP1 PUSH1 0x40 MLOAD DUP1 PUSH1 0x40 ADD PUSH1 0x40 MSTORE DUP1 PUSH1 0x16 DUP2 MSTORE PUSH1 0x20 ADD PUSH32 0x52696368617264204A6572656D79204769746875626100000000000000000000 DUP2 MSTORE POP DUP2 MSTORE PUSH1 0x20 ADD PUSH3 0x1C496 DUP2 MSTORE PUSH1 0x20 ADD PUSH1 0x5A DUP2 MSTORE POP PUSH1 0x2 PUSH1 0x0 DUP3 ADD MLOAD DUP2 PUSH1 0x0 ADD SWAP1 DUP1 MLOAD SWAP1 PUSH1 0x20 ADD SWAP1 PUSH2 0x76 SWAP3 SWAP2 SWAP1 PUSH2 0x9F JUMP JUMPDEST POP PUSH1 0x20 DUP3 ADD MLOAD DUP2 PUSH1 0x1 ADD SSTORE PUSH1 0x40 DUP3 ADD MLOAD DUP2 PUSH1 0x2 ADD SSTORE POP POP CALLVALUE DUP1 ISZERO PUSH2 0x99 JUMPI PUSH1 0x0 DUP1 REVERT JUMPDEST POP PUSH2 0x1A3 JUMP JUMPDEST DUP3 DUP1 SLOAD PUSH2 0xAB SWAP1 PUSH2 0x171 JUMP JUMPDEST SWAP1 PUSH1 0x0 MSTORE PUSH1 0x20 PUSH1 0x0 KECCAK256 SWAP1 PUSH1 0x1F ADD PUSH1 0x20 SWAP1 DIV DUP2 ADD SWAP3 DUP3 PUSH2 0xCD JUMPI PUSH1 0x0 DUP6 SSTORE PUSH2 0x114 JUMP JUMPDEST DUP3 PUSH1 0x1F LT PUSH2 0xE6 JUMPI DUP1 MLOAD PUSH1 0xFF NOT AND DUP4 DUP1 ADD OR DUP6 SSTORE PUSH2 0x114 JUMP JUMPDEST DUP3 DUP1 ADD PUSH1 0x1 ADD DUP6 SSTORE DUP3 ISZERO PUSH2 0x114 JUMPI SWAP2 DUP3 ADD JUMPDEST DUP3 DUP2 GT ISZERO PUSH2 0x113 JUMPI DUP3 MLOAD DUP3 SSTORE SWAP2 PUSH1 0x20 ADD SWAP2 SWAP1 PUSH1 0x1 ADD SWAP1 PUSH2 0xF8 JUMP JUMPDEST JUMPDEST POP SWAP1 POP PUSH2 0x121 SWAP2 SWAP1 PUSH2 0x125 JUMP JUMPDEST POP SWAP1 JUMP JUMPDEST JUMPDEST DUP1 DUP3 GT ISZERO PUSH2 0x13E JUMPI PUSH1 0x0 DUP2 PUSH1 0x0 SWAP1 SSTORE POP PUSH1 0x1 ADD PUSH2 0x126 JUMP JUMPDEST POP SWAP1 JUMP JUMPDEST PUSH32 0x4E487B7100000000000000000000000000000000000000000000000000000000 PUSH1 0x0 MSTORE PUSH1 0x22 PUSH1 0x4 MSTORE PUSH1 0x24 PUSH1 0x0 REVERT JUMPDEST PUSH1 0x0 PUSH1 0x2 DUP3 DIV SWAP1 POP PUSH1 0x1 DUP3 AND DUP1 PUSH2 0x189 JUMPI PUSH1 0x7F DUP3 AND SWAP2 POP JUMPDEST PUSH1 0x20 DUP3 LT DUP2 EQ ISZERO PUSH2 0x19D JUMPI PUSH2 0x19C PUSH2 0x142 JUMP JUMPDEST JUMPDEST POP SWAP2 SWAP1 POP JUMP JUMPDEST PUSH2 0x7C5 DUP1 PUSH2 0x1B2 PUSH1 0x0 CODECOPY PUSH1 0x0 RETURN INVALID PUSH1 0x80 PUSH1 0x40 MSTORE CALLVALUE DUP1 ISZERO PUSH2 0x10 JUMPI PUSH1 0x0 DUP1 REVERT JUMPDEST POP PUSH1 0x4 CALLDATASIZE LT PUSH2 0x7D JUMPI PUSH1 0x0 CALLDATALOAD PUSH1 0xE0 SHR DUP1 PUSH4 0x5794F8D2 GT PUSH2 0x5B JUMPI DUP1 PUSH4 0x5794F8D2 EQ PUSH2 0xF0 JUMPI DUP1 PUSH4 0x6057361D EQ PUSH2 0x110 JUMPI DUP1 PUSH4 0x682AD06E EQ PUSH2 0x12C JUMPI DUP1 PUSH4 0x797890A4 EQ PUSH2 0x148 JUMPI PUSH2 0x7D JUMP JUMPDEST DUP1 PUSH4 0xC55699C EQ PUSH2 0x82 JUMPI DUP1 PUSH4 0x3613A9F4 EQ PUSH2 0xA0 JUMPI DUP1 PUSH4 0x4F2BE91F EQ PUSH2 0xD2 JUMPI JUMPDEST PUSH1 0x0 DUP1 REVERT JUMPDEST PUSH2 0x8A PUSH2 0x166 JUMP JUMPDEST PUSH1 0x40 MLOAD PUSH2 0x97 SWAP2 SWAP1 PUSH2 0x42B JUMP JUMPDEST PUSH1 0x40 MLOAD DUP1 SWAP2 SUB SWAP1 RETURN JUMPDEST PUSH2 0xBA PUSH1 0x4 DUP1 CALLDATASIZE SUB DUP2 ADD SWAP1 PUSH2 0xB5 SWAP2 SWAP1 PUSH2 0x486 JUMP JUMPDEST PUSH2 0x16C JUMP JUMPDEST PUSH1 0x40 MLOAD PUSH2 0xC9 SWAP4 SWAP3 SWAP2 SWAP1 PUSH2 0x54C JUMP JUMPDEST PUSH1 0x40 MLOAD DUP1 SWAP2 SUB SWAP1 RETURN JUMPDEST PUSH2 0xDA PUSH2 0x22E JUMP JUMPDEST PUSH1 0x40 MLOAD PUSH2 0xE7 SWAP2 SWAP1 PUSH2 0x42B JUMP JUMPDEST PUSH1 0x40 MLOAD DUP1 SWAP2 SUB SWAP1 RETURN JUMPDEST PUSH2 0xF8 PUSH2 0x237 JUMP JUMPDEST PUSH1 0x40 MLOAD PUSH2 0x107 SWAP4 SWAP3 SWAP2 SWAP1 PUSH2 0x54C JUMP JUMPDEST PUSH1 0x40 MLOAD DUP1 SWAP2 SUB SWAP1 RETURN JUMPDEST PUSH2 0x12A PUSH1 0x4 DUP1 CALLDATASIZE SUB DUP2 ADD SWAP1 PUSH2 0x125 SWAP2 SWAP1 PUSH2 0x486 JUMP JUMPDEST PUSH2 0x2D7 JUMP JUMPDEST STOP JUMPDEST PUSH2 0x146 PUSH1 0x4 DUP1 CALLDATASIZE SUB DUP2 ADD SWAP1 PUSH2 0x141 SWAP2 SWAP1 PUSH2 0x6BF JUMP JUMPDEST PUSH2 0x2E1 JUMP JUMPDEST STOP JUMPDEST PUSH2 0x150 PUSH2 0x365 JUMP JUMPDEST PUSH1 0x40 MLOAD PUSH2 0x15D SWAP2 SWAP1 PUSH2 0x42B JUMP JUMPDEST PUSH1 0x40 MLOAD DUP1 SWAP2 SUB SWAP1 RETURN JUMPDEST PUSH1 0x0 SLOAD DUP2 JUMP JUMPDEST PUSH1 0x5 DUP2 DUP2 SLOAD DUP2 LT PUSH2 0x17C JUMPI PUSH1 0x0 DUP1 REVERT JUMPDEST SWAP1 PUSH1 0x0 MSTORE PUSH1 0x20 PUSH1 0x0 KECCAK256 SWAP1 PUSH1 0x3 MUL ADD PUSH1 0x0 SWAP2 POP SWAP1 POP DUP1 PUSH1 0x0 ADD DUP1 SLOAD PUSH2 0x19F SWAP1 PUSH2 0x75D JUMP JUMPDEST DUP1 PUSH1 0x1F ADD PUSH1 0x20 DUP1 SWAP2 DIV MUL PUSH1 0x20 ADD PUSH1 0x40 MLOAD SWAP1 DUP2 ADD PUSH1 0x40 MSTORE DUP1 SWAP3 SWAP2 SWAP1 DUP2 DUP2 MSTORE PUSH1 0x20 ADD DUP3 DUP1 SLOAD PUSH2 0x1CB SWAP1 PUSH2 0x75D JUMP JUMPDEST DUP1 ISZERO PUSH2 0x218 JUMPI DUP1 PUSH1 0x1F LT PUSH2 0x1ED JUMPI PUSH2 0x100 DUP1 DUP4 SLOAD DIV MUL DUP4 MSTORE SWAP2 PUSH1 0x20 ADD SWAP2 PUSH2 0x218 JUMP JUMPDEST DUP3 ADD SWAP2 SWAP1 PUSH1 0x0 MSTORE PUSH1 0x20 PUSH1 0x0 KECCAK256 SWAP1 JUMPDEST DUP2 SLOAD DUP2 MSTORE SWAP1 PUSH1 0x1 ADD SWAP1 PUSH1 0x20 ADD DUP1 DUP4 GT PUSH2 0x1FB JUMPI DUP3 SWAP1 SUB PUSH1 0x1F AND DUP3 ADD SWAP2 JUMPDEST POP POP POP POP POP SWAP1 DUP1 PUSH1 0x1 ADD SLOAD SWAP1 DUP1 PUSH1 0x2 ADD SLOAD SWAP1 POP DUP4 JUMP JUMPDEST PUSH1 0x0 PUSH1 0x2 SWAP1 POP SWAP1 JUMP JUMPDEST PUSH1 0x2 DUP1 PUSH1 0x0 ADD DUP1 SLOAD PUSH2 0x248 SWAP1 PUSH2 0x75D JUMP JUMPDEST DUP1 PUSH1 0x1F ADD PUSH1 0x20 DUP1 SWAP2 DIV MUL PUSH1 0x20 ADD PUSH1 0x40 MLOAD SWAP1 DUP2 ADD PUSH1 0x40 MSTORE DUP1 SWAP3 SWAP2 SWAP1 DUP2 DUP2 MSTORE PUSH1 0x20 ADD DUP3 DUP1 SLOAD PUSH2 0x274 SWAP1 PUSH2 0x75D JUMP JUMPDEST DUP1 ISZERO PUSH2 0x2C1 JUMPI DUP1 PUSH1 0x1F LT PUSH2 0x296 JUMPI PUSH2 0x100 DUP1 DUP4 SLOAD DIV MUL DUP4 MSTORE SWAP2 PUSH1 0x20 ADD SWAP2 PUSH2 0x2C1 JUMP JUMPDEST DUP3 ADD SWAP2 SWAP1 PUSH1 0x0 MSTORE PUSH1 0x20 PUSH1 0x0 KECCAK256 SWAP1 JUMPDEST DUP2 SLOAD DUP2 MSTORE SWAP1 PUSH1 0x1 ADD SWAP1 PUSH1 0x20 ADD DUP1 DUP4 GT PUSH2 0x2A4 JUMPI DUP3 SWAP1 SUB PUSH1 0x1F AND DUP3 ADD SWAP2 JUMPDEST POP POP POP POP POP SWAP1 DUP1 PUSH1 0x1 ADD SLOAD SWAP1 DUP1 PUSH1 0x2 ADD SLOAD SWAP1 POP DUP4 JUMP JUMPDEST DUP1 PUSH1 0x1 DUP2 SWAP1 SSTORE POP POP JUMP JUMPDEST PUSH1 0x0 PUSH1 0x40 MLOAD DUP1 PUSH1 0x60 ADD PUSH1 0x40 MSTORE DUP1 DUP6 DUP2 MSTORE PUSH1 0x20 ADD DUP5 DUP2 MSTORE PUSH1 0x20 ADD DUP4 DUP2 MSTORE POP SWAP1 POP PUSH1 0x5 DUP2 SWAP1 DUP1 PUSH1 0x1 DUP2 SLOAD ADD DUP1 DUP3 SSTORE DUP1 SWAP2 POP POP PUSH1 0x1 SWAP1 SUB SWAP1 PUSH1 0x0 MSTORE PUSH1 0x20 PUSH1 0x0 KECCAK256 SWAP1 PUSH1 0x3 MUL ADD PUSH1 0x0 SWAP1 SWAP2 SWAP1 SWAP2 SWAP1 SWAP2 POP PUSH1 0x0 DUP3 ADD MLOAD DUP2 PUSH1 0x0 ADD SWAP1 DUP1 MLOAD SWAP1 PUSH1 0x20 ADD SWAP1 PUSH2 0x348 SWAP3 SWAP2 SWAP1 PUSH2 0x36F JUMP JUMPDEST POP PUSH1 0x20 DUP3 ADD MLOAD DUP2 PUSH1 0x1 ADD SSTORE PUSH1 0x40 DUP3 ADD MLOAD DUP2 PUSH1 0x2 ADD SSTORE POP POP POP POP POP POP JUMP JUMPDEST PUSH1 0x0 PUSH1 0x1 SLOAD SWAP1 POP SWAP1 JUMP JUMPDEST DUP3 DUP1 SLOAD PUSH2 0x37B SWAP1 PUSH2 0x75D JUMP JUMPDEST SWAP1 PUSH1 0x0 MSTORE PUSH1 0x20 PUSH1 0x0 KECCAK256 SWAP1 PUSH1 0x1F ADD PUSH1 0x20 SWAP1 DIV DUP2 ADD SWAP3 DUP3 PUSH2 0x39D JUMPI PUSH1 0x0 DUP6 SSTORE PUSH2 0x3E4 JUMP JUMPDEST DUP3 PUSH1 0x1F LT PUSH2 0x3B6 JUMPI DUP1 MLOAD PUSH1 0xFF NOT AND DUP4 DUP1 ADD OR DUP6 SSTORE PUSH2 0x3E4 JUMP JUMPDEST DUP3 DUP1 ADD PUSH1 0x1 ADD DUP6 SSTORE DUP3 ISZERO PUSH2 0x3E4 JUMPI SWAP2 DUP3 ADD JUMPDEST DUP3 DUP2 GT ISZERO PUSH2 0x3E3 JUMPI DUP3 MLOAD DUP3 SSTORE SWAP2 PUSH1 0x20 ADD SWAP2 SWAP1 PUSH1 0x1 ADD SWAP1 PUSH2 0x3C8 JUMP JUMPDEST JUMPDEST POP SWAP1 POP PUSH2 0x3F1 SWAP2 SWAP1 PUSH2 0x3F5 JUMP JUMPDEST POP SWAP1 JUMP JUMPDEST JUMPDEST DUP1 DUP3 GT ISZERO PUSH2 0x40E JUMPI PUSH1 0x0 DUP2 PUSH1 0x0 SWAP1 SSTORE POP PUSH1 0x1 ADD PUSH2 0x3F6 JUMP JUMPDEST POP SWAP1 JUMP JUMPDEST PUSH1 0x0 DUP2 SWAP1 POP SWAP2 SWAP1 POP JUMP JUMPDEST PUSH2 0x425 DUP2 PUSH2 0x412 JUMP JUMPDEST DUP3 MSTORE POP POP JUMP JUMPDEST PUSH1 0x0 PUSH1 0x20 DUP3 ADD SWAP1 POP PUSH2 0x440 PUSH1 0x0 DUP4 ADD DUP5 PUSH2 0x41C JUMP JUMPDEST SWAP3 SWAP2 POP POP JUMP JUMPDEST PUSH1 0x0 PUSH1 0x40 MLOAD SWAP1 POP SWAP1 JUMP JUMPDEST PUSH1 0x0 DUP1 REVERT JUMPDEST PUSH1 0x0 DUP1 REVERT JUMPDEST PUSH2 0x463 DUP2 PUSH2 0x412 JUMP JUMPDEST DUP2 EQ PUSH2 0x46E JUMPI PUSH1 0x0 DUP1 REVERT JUMPDEST POP JUMP JUMPDEST PUSH1 0x0 DUP2 CALLDATALOAD SWAP1 POP PUSH2 0x480 DUP2 PUSH2 0x45A JUMP JUMPDEST SWAP3 SWAP2 POP POP JUMP JUMPDEST PUSH1 0x0 PUSH1 0x20 DUP3 DUP5 SUB SLT ISZERO PUSH2 0x49C JUMPI PUSH2 0x49B PUSH2 0x450 JUMP JUMPDEST JUMPDEST PUSH1 0x0 PUSH2 0x4AA DUP5 DUP3 DUP6 ADD PUSH2 0x471 JUMP JUMPDEST SWAP2 POP POP SWAP3 SWAP2 POP POP JUMP JUMPDEST PUSH1 0x0 DUP2 MLOAD SWAP1 POP SWAP2 SWAP1 POP JUMP JUMPDEST PUSH1 0x0 DUP3 DUP3 MSTORE PUSH1 0x20 DUP3 ADD SWAP1 POP SWAP3 SWAP2 POP POP JUMP JUMPDEST PUSH1 0x0 JUMPDEST DUP4 DUP2 LT ISZERO PUSH2 0x4ED JUMPI DUP1 DUP3 ADD MLOAD DUP2 DUP5 ADD MSTORE PUSH1 0x20 DUP2 ADD SWAP1 POP PUSH2 0x4D2 JUMP JUMPDEST DUP4 DUP2 GT ISZERO PUSH2 0x4FC JUMPI PUSH1 0x0 DUP5 DUP5 ADD MSTORE JUMPDEST POP POP POP POP JUMP JUMPDEST PUSH1 0x0 PUSH1 0x1F NOT PUSH1 0x1F DUP4 ADD AND SWAP1 POP SWAP2 SWAP1 POP JUMP JUMPDEST PUSH1 0x0 PUSH2 0x51E DUP3 PUSH2 0x4B3 JUMP JUMPDEST PUSH2 0x528 DUP2 DUP6 PUSH2 0x4BE JUMP JUMPDEST SWAP4 POP PUSH2 0x538 DUP2 DUP6 PUSH1 0x20 DUP7 ADD PUSH2 0x4CF JUMP JUMPDEST PUSH2 0x541 DUP2 PUSH2 0x502 JUMP JUMPDEST DUP5 ADD SWAP2 POP POP SWAP3 SWAP2 POP POP JUMP JUMPDEST PUSH1 0x0 PUSH1 0x60 DUP3 ADD SWAP1 POP DUP2 DUP2 SUB PUSH1 0x0 DUP4 ADD MSTORE PUSH2 0x566 DUP2 DUP7 PUSH2 0x513 JUMP JUMPDEST SWAP1 POP PUSH2 0x575 PUSH1 0x20 DUP4 ADD DUP6 PUSH2 0x41C JUMP JUMPDEST PUSH2 0x582 PUSH1 0x40 DUP4 ADD DUP5 PUSH2 0x41C JUMP JUMPDEST SWAP5 SWAP4 POP POP POP POP JUMP JUMPDEST PUSH1 0x0 DUP1 REVERT JUMPDEST PUSH1 0x0 DUP1 REVERT JUMPDEST PUSH32 0x4E487B7100000000000000000000000000000000000000000000000000000000 PUSH1 0x0 MSTORE PUSH1 0x41 PUSH1 0x4 MSTORE PUSH1 0x24 PUSH1 0x0 REVERT JUMPDEST PUSH2 0x5CC DUP3 PUSH2 0x502 JUMP JUMPDEST DUP2 ADD DUP2 DUP2 LT PUSH8 0xFFFFFFFFFFFFFFFF DUP3 GT OR ISZERO PUSH2 0x5EB JUMPI PUSH2 0x5EA PUSH2 0x594 JUMP JUMPDEST JUMPDEST DUP1 PUSH1 0x40 MSTORE POP POP POP JUMP JUMPDEST PUSH1 0x0 PUSH2 0x5FE PUSH2 0x446 JUMP JUMPDEST SWAP1 POP PUSH2 0x60A DUP3 DUP3 PUSH2 0x5C3 JUMP JUMPDEST SWAP2 SWAP1 POP JUMP JUMPDEST PUSH1 0x0 PUSH8 0xFFFFFFFFFFFFFFFF DUP3 GT ISZERO PUSH2 0x62A JUMPI PUSH2 0x629 PUSH2 0x594 JUMP JUMPDEST JUMPDEST PUSH2 0x633 DUP3 PUSH2 0x502 JUMP JUMPDEST SWAP1 POP PUSH1 0x20 DUP2 ADD SWAP1 POP SWAP2 SWAP1 POP JUMP JUMPDEST DUP3 DUP2 DUP4 CALLDATACOPY PUSH1 0x0 DUP4 DUP4 ADD MSTORE POP POP POP JUMP JUMPDEST PUSH1 0x0 PUSH2 0x662 PUSH2 0x65D DUP5 PUSH2 0x60F JUMP JUMPDEST PUSH2 0x5F4 JUMP JUMPDEST SWAP1 POP DUP3 DUP2 MSTORE PUSH1 0x20 DUP2 ADD DUP5 DUP5 DUP5 ADD GT ISZERO PUSH2 0x67E JUMPI PUSH2 0x67D PUSH2 0x58F JUMP JUMPDEST JUMPDEST PUSH2 0x689 DUP5 DUP3 DUP6 PUSH2 0x640 JUMP JUMPDEST POP SWAP4 SWAP3 POP POP POP JUMP JUMPDEST PUSH1 0x0 DUP3 PUSH1 0x1F DUP4 ADD SLT PUSH2 0x6A6 JUMPI PUSH2 0x6A5 PUSH2 0x58A JUMP JUMPDEST JUMPDEST DUP2 CALLDATALOAD PUSH2 0x6B6 DUP5 DUP3 PUSH1 0x20 DUP7 ADD PUSH2 0x64F JUMP JUMPDEST SWAP2 POP POP SWAP3 SWAP2 POP POP JUMP JUMPDEST PUSH1 0x0 DUP1 PUSH1 0x0 PUSH1 0x60 DUP5 DUP7 SUB SLT ISZERO PUSH2 0x6D8 JUMPI PUSH2 0x6D7 PUSH2 0x450 JUMP JUMPDEST JUMPDEST PUSH1 0x0 DUP5 ADD CALLDATALOAD PUSH8 0xFFFFFFFFFFFFFFFF DUP2 GT ISZERO PUSH2 0x6F6 JUMPI PUSH2 0x6F5 PUSH2 0x455 JUMP JUMPDEST JUMPDEST PUSH2 0x702 DUP7 DUP3 DUP8 ADD PUSH2 0x691 JUMP JUMPDEST SWAP4 POP POP PUSH1 0x20 PUSH2 0x713 DUP7 DUP3 DUP8 ADD PUSH2 0x471 JUMP JUMPDEST SWAP3 POP POP PUSH1 0x40 PUSH2 0x724 DUP7 DUP3 DUP8 ADD PUSH2 0x471 JUMP JUMPDEST SWAP2 POP POP SWAP3 POP SWAP3 POP SWAP3 JUMP JUMPDEST PUSH32 0x4E487B7100000000000000000000000000000000000000000000000000000000 PUSH1 0x0 MSTORE PUSH1 0x22 PUSH1 0x4 MSTORE PUSH1 0x24 PUSH1 0x0 REVERT JUMPDEST PUSH1 0x0 PUSH1 0x2 DUP3 DIV SWAP1 POP PUSH1 0x1 DUP3 AND DUP1 PUSH2 0x775 JUMPI PUSH1 0x7F DUP3 AND SWAP2 POP JUMPDEST PUSH1 0x20 DUP3 LT DUP2 EQ ISZERO PUSH2 0x789 JUMPI PUSH2 0x788 PUSH2 0x72E JUMP JUMPDEST JUMPDEST POP SWAP2 SWAP1 POP JUMP INVALID LOG2 PUSH5 0x6970667358 0x22 SLT KECCAK256 CODECOPY SWAP16 PC 0xFC DUP4 0xEC CREATE 0xE2 ISZERO 0xDA JUMPI CALLDATALOAD 0x1E DUP15 0xBB SLOAD SWAP6 0x23 0x4A 0x5C CALLVALUE CODECOPY POP 0x26 SELFDESTRUCT ADDMOD ORIGIN BALANCE 0xCD PUSH32 0x27F364736F6C6343000808003300000000000000000000000000000000000000 "
				},
				"gasEstimates": {
					"creation": {
						"codeDepositCost": "397800",
						"executionCost": "infinite",
						"totalCost": "infinite"
					},
					"external": {
						"add()": "382",
						"addStudent(string,uint256,uint256)": "infinite",
						"class(uint256)": "infinite",
						"richard()": "infinite",
						"showA()": "2503",
						"store(uint256)": "22542",
						"x()": "2430"
					}
				},
				"methodIdentifiers": {
					"add()": "4f2be91f",
					"addStudent(string,uint256,uint256)": "682ad06e",
					"class(uint256)": "3613a9f4",
					"richard()": "5794f8d2",
					"showA()": "797890a4",
					"store(uint256)": "6057361d",
					"x()": "0c55699c"
				}
			},
			"storageLayout": {
				"storage": [
					{
						"astId": 3,
						"contract": "contracts/confirming.sol:newProgram",
						"label": "x",
						"offset": 0,
						"slot": "0",
						"type": "t_uint256"
					},
					{
						"astId": 5,
						"contract": "contracts/confirming.sol:newProgram",
						"label": "A",
						"offset": 0,
						"slot": "1",
						"type": "t_uint256"
					},
					{
						"astId": 20,
						"contract": "contracts/confirming.sol:newProgram",
						"label": "richard",
						"offset": 0,
						"slot": "2",
						"type": "t_struct(student)12_storage"
					},
					{
						"astId": 24,
						"contract": "contracts/confirming.sol:newProgram",
						"label": "class",
						"offset": 0,
						"slot": "5",
						"type": "t_array(t_struct(student)12_storage)dyn_storage"
					}
				],
				"types": {
					"t_array(t_struct(student)12_storage)dyn_storage": {
						"base": "t_struct(student)12_storage",
						"encoding": "dynamic_array",
						"label": "struct newProgram.student[]",
						"numberOfBytes": "32"
					},
					"t_string_storage": {
						"encoding": "bytes",
						"label": "string",
						"numberOfBytes": "32"
					},
					"t_struct(student)12_storage": {
						"encoding": "inplace",
						"label": "struct newProgram.student",
						"members": [
							{
								"astId": 7,
								"contract": "contracts/confirming.sol:newProgram",
								"label": "name",
								"offset": 0,
								"slot": "0",
								"type": "t_string_storage"
							},
							{
								"astId": 9,
								"contract": "contracts/confirming.sol:newProgram",
								"label": "admissionNumber",
								"offset": 0,
								"slot": "1",
								"type": "t_uint256"
							},
							{
								"astId": 11,
								"contract": "contracts/confirming.sol:newProgram",
								"label": "marks",
								"offset": 0,
								"slot": "2",
								"type": "t_uint256"
							}
						],
						"numberOfBytes": "96"
					},
					"t_uint256": {
						"encoding": "inplace",
						"label": "uint256",
						"numberOfBytes": "32"
					}
				}
			},
			"userdoc": {
				"kind": "user",
				"methods": {},
				"version": 1
			}
		}
	}
}